:1000000090C20000C6C20000C4C20000C2C200000C
:10001000C0C20000BEC20000BCC20000BAC20000E4
:10002000B8C20000B6C200000C94C21C0C947E1C26
:100030000C94CD1DAEC20000ACC20000AAC20000EC
:10004000A8C20000A6C20000A4C20000A2C2000014
:10005000A0C200000C94A91D9CC200009AC200001E
:1000600098C2000096C2000094C2000092C2000034
:1000700090C200008EC200008CC200008AC2000044
:1000800088C2000086C2000084C2000082C2000054
:1000900080C200007EC200007CC200007AC2000064
:1000A00078C2000076C2000074C2000007634236C6
:1000B000B79BD8A71A39685618AEBAAB558C1D3CF9
:1000C000B7CC5763BD6DEDFD753EF6177231BF00BD
:1000D0000000803F05010902A10185020901A1007C
:1000E00005091901290815002501950875018102E6
:1000F0000501093009311581257F950275088106B2
:1001000009381581257F950175088106050C0A3887
:10011000021581257F950175088106C0C00501097A
:1001200080A101850319012AB700150126B70095A2
:100130000175108100C0050C0901A1018504190198
:100140002AA002150126A002950175108100C005A4
:10015000010906A1018506050719E029E715002513
:10016000019508750181020507190029EF15002581
:100170000195F0750181020508190129059505759C
:10018000019102950175039101C00669FF0910A153
:10019000010962150026FF00952075088102096398
:1001A000150026FF00952075089102C0050109067B
:1001B000A101050719E029E715002501950875013A
:1001C00081029501750881010507190029FF1500B5
:1001D00026FF0095067508810005081901290515F7
:1001E000002501950575019102950175039101C0E6
:1001F00020002100220023001F0027001E002400F1
:100200001E0F0500047F3F1F643214643214783CD3
:100210001E1E140A05000101010101010101010274
:1002200002020202020202020303030303030303A6
:100230000404040404040405050505050606060671
:1002400006070707070708080808090909090A0A2D
:100250000A0B0B0B0C0C0C0D0D0D0E0E0E0F0F0FD1
:10026000101011111112121313141415151616175C
:1002700017181819191A1A1B1B1C1D1D1E1E1F20CA
:1002800020212222232424252626272829292A2B17
:100290002C2D2D2E2F30313232333435363738393C
:1002A0003A3B3C3D3E3F4041424344454647484936
:1002B0004A4C4D4E4F50515354555658595A5B5D08
:1002C0005E5F616264656668696B6C6D6F707273A6
:1002D0007577787A7B7D7E8082838587888A8C8E0D
:1002E0008F91939596989A9C9EA0A2A3A5A7A9AB3F
:1002F000ADAFB1B3B5B7BABCBEC0C2C4C6C9CBCD31
:10030000CFD1D4D6D8DBDDDFE2E4E7E9EBEEF0F3E2
:10031000F5F8FAFDFFFFAA7F55402223252628295C
:100320002A2C2D2F3032333536383A3B3D3E404271
:10033000434547494A4C4E5051535557595A5C5EB4
:100340006062646668696B6D6F71737577797B7DC8
:100350007F81838587898A8C8E90929496989A9CC7
:100360009E9FA1A3A5A7A8AAACAEAFB1B3B4B6B8DF
:10037000B9BBBCBEBFC1C2C3C5C6C7C9CACBCCCD41
:10038000CED0D1D2D2D3D4D5D6D7D7D8D9D9DADA1C
:10039000DBDBDBDCDCDCDCDCDDDDDDDDDCDCDCDC9C
:1003A000DCDBDBDBDADAD9D9D8D7D7D6D5D4D3D2D0
:1003B000D2D1D0CECDCCCBCAC9C7C6C5C3C2C1BFAE
:1003C000BEBCBBB9B8B6B4B3B1AFAEACAAA8A7A512
:1003D000A3A19F9E9C9A98969492908E8C8A8987CE
:1003E0008583817F7D7B79777573716F6D6B6968AC
:1003F000666462605E5C5A5957555351504E4C4A80
:100400004947454342403E3D3B3A3836353332302A
:100410002F2D2C2A2928262523220902BF00050179
:1004200000A0FA09040000010301010009211101E3
:1004300000012244000705810308000109040100AE
:10044000020300000009211101000122220007051A
:1004500082032000010705030320000109040200B4
:10046000010300000009211101000122B600070567
:100470008403200001080B030201010000090403AA
:100480000000010100000924010001090001040924
:1004900004040002010300000724010001410006DA
:1004A00024020101000624020202000924030103C0
:1004B00001020100092403020401010100090506EB
:1004C00002400005000005250101010905850240E3
:1004D00000050000052501010312010002000000D3
:1004E00008A80300000100010200011A036E006168
:1004F000006E006F002E00200073006C0069006425
:100500000065007200000014036B00650065006266
:10051000007700650072006B002E000000040309E4
:10052000040011241FBECFEFDAE0DEBFCDBF04B65A
:1005300003FE18C08091D0039091D103A091D20303
:10054000B091D3038730904BA740B04B59F4109231
:10055000D0031092D1031092D2031092D303E0E0A3
:10056000F8E3099511E0A0E0B1E0E8E5F2E502C0AA
:1005700005900D92AC3BB107D9F723E0ACEBB1E0AD
:1005800001C01D92A03DB207E1F70E94F41D0C943A
:10059000EC2836CDA3E0B0E0E0EDF2E00C945F246F
:1005A0007C01162FD42EC22E8091C002843071F5AA
:1005B000E091B502F091B6023097C1F1C701019701
:1005C00063E070E00E941C24CB01880F991F860F06
:1005D000971F19834A83CB824E2D481B9E012F5FA4
:1005E0003F4FBC018BE992E00995E091B902F0918F
:1005F000BA02309739F00C2D2D2D412FB7018BE920
:1006000092E009952396E8E00C947B2482E0E816BA
:10061000F10409F45AC083E0E816F104A9F081E07E
:10062000E816F10409F484C0F12CE12CE091B70242
:10063000F091B8023097C9F20C2D2D2D412FB70142
:100640008BE992E00995D1CF862F807F803A11F116
:1006500088F48038D1F0E0919F02F091A0028039B7
:1006600029F7309719F3123F49F12C2D4D2D612FA9
:100670006F7027C0803E99F0803FB1F0E0919D02FD
:10068000F0919E02803B91F6ECCFE091A102F091B7
:10069000A202E7CFE091A302F091A402E2CFE091A1
:1006A000A502F091A602DDCF623F09F0BFCFE09135
:1006B000A702F091A802309709F4B8CF2C2D4D2D48
:1006C00062EF8BE992E0099590CF862F807F803D85
:1006D000B9F0803FD1F0E091A902F091AA02803CEC
:1006E00009F0A4CF309709F4A1CF812F8D7F4D2D34
:1006F000612F6F70813FC9F08BE992E0099575CF4A
:10070000E091AB02F091AC02EDCFE091AD02F0913F
:10071000AE02633F39F0613F09F088CFE091AF024C
:10072000F091B002309709F481CF4D2D612FE4CFC5
:10073000E091B102F091B202683F38F4663F09F0EF
:1007400075CFE091B302F091B402309709F46ECF07
:10075000612F8BE992E0099548CFE8EDF0E08081C8
:100760008E7F80831092E2001092DA001092E100F6
:10077000A0EEB0E08C9181608C9380818F77808334
:1007800019BCA7EDB0E08C918E7F8C9380818F7E19
:1007900080831092860208952091E4003091E50054
:1007A00095E6A9012091EC00822F817020FF06C000
:1007B0008091E80080FF06C080E008952091E80065
:1007C00022FD1AC080919102882389F0853089F03A
:1007D0008091EB0085FD0FC02091E4003091E50091
:1007E00042175307F9F29150E1F684E0089582E050
:1007F000089583E0089581E00895EF92FF920F93AA
:100800001F93CF937C018B01C7DFC82F811116C0C6
:100810008091E80085FD0AC08091E8008B77809385
:10082000E800BADF8823A1F3C82F08C08091F10047
:10083000F70181937F010150110951F78C2FCF915E
:100840001F910F91FF90EF900895EF92FF920F93F9
:100850001F93CF937C018B019FDFC82F811116C09E
:100860008091E80085FD0AC08091E8008E77809332
:10087000E80092DF8823A1F3C82F08C0F701819117
:100880007F018093F1000150110951F78C2FCF9116
:100890001F910F91FF90EF9008958091930287FF31
:1008A00013C08091E80082FF06C08091E8008B773A
:1008B0008093E80004C0809191028111F2CF0895E5
:1008C000809191028823D9F38091E80080FFF8CFCE
:1008D0008091E8008E77ECCF982F9093E900242F39
:1008E000762F50E0891731F07091EC002091ED00E7
:1008F0005091F00021FD07C09F5F973071F7809302
:10090000E90081E008953091EB003E7F3093EB00E9
:100910003091ED003D7F3093ED003091EB00316080
:100920003093EB007093EC002093ED005093F000B7
:100930002091EE0027FDE0CF80E00895B0E0A0E038
:10094000E4EAF4E00C945F24C8EDD0E088818F7E67
:100950008883E7EDF0E080818160808384E082BF5E
:1009600081E08093860288818E7F888302EE10E08A
:10097000F80110821092DA0081EEC82ED12CF60117
:10098000108288818F7788838881806888838881B6
:100990008F7D888319BC109291021092920210925E
:1009A000900210928F0290EEE92EF12CF7018081D7
:1009B0008B7F808388818160888342E060E080E073
:1009C0008BDFF60180818E7F8083F80180818160DA
:1009D0008083808188608083F70180818E7F80831F
:1009E000888180618883CDB7DEB7E8E00C947B24F2
:1009F000FC018091990290919A0286179707A0F0C6
:100A00006115710529F49091E8009E779093E800B4
:100A100090E06115710551F4911108C08091E800D2
:100A200082FF34C080E00895BC01F2CF8091910232
:100A30008823C1F18530C1F18091E80083FD30C089
:100A40008091E80082FDEACF8091E80080FFE1CF4D
:100A50008091F3002091F200382F6115710519F093
:100A60002830310558F091E02830310509F090E048
:100A70002091E8002E772093E800CBCF81918093DE
:100A8000F100615071092F5F3F4FE7CF80919102D4
:100A9000882341F0853041F08091E80083FFBECF8C
:100AA00081E0089582E0089583E008952FB7F894D7
:100AB0008091820290918302A0918402B09185027C
:100AC0002FBF089580912B01089590912C019130B2
:100AD000D1F490917F0297FF16C0E82FE695E69536
:100AE000E695EE31E0F4F0E0EA53FE4F282F277050
:100AF00081E090E001C0880F2A95EAF78095928105
:100B0000892382830895E0ECF1E09191891303C079
:100B1000DF0111971C9291E0E63CF907B1F70895C7
:100B200090912C019130C1F490917F0297FF14C0F5
:100B3000E82FE695E695E695EE31F8F4F0E0EA5315
:100B4000FE4F877021E030E001C0220F8A95EAF75E
:100B50008281822B82830895A0ECB1E0EFEF90E0D8
:100B60002D91821751F0EF3F19F4211101C0E92FA7
:100B70009F5F9630A9F7EF3F09F408950E2E000C01
:100B8000FF0BE254FE4FE6CFA3E0B0E0EAECF5E065
:100B90000C94652420917D0230917E02281739073C
:100BA000B1F090937E0280937D02E0917B02F09100
:100BB0007C02309761F00084F185E02D309739F0A8
:100BC00024E029839B838A83CE010196099523968D
:100BD000E2E00C948124A3E0B0E0E1EFF5E00C94B6
:100BE00065242091790230917A0228173907B1F0F3
:100BF00090937A0280937902E0917B02F0917C02DB
:100C0000309761F00084F185E02D309739F023E0D2
:100C100029839B838A83CE01019609952396E2E07E
:100C20000C948124E0917B02F0917C02309739F0A2
:100C30000190F081E02D309711F00995089580E042
:100C4000089534DF9C019091750280917602982B73
:100C500021F030937202209371029091770280917B
:100C60007802982B21F03093700220936F02E0916C
:100C70007B02F0917C02309759F00680F781E02DDD
:100C8000309731F082E08093730283E792E0099518
:100C9000089580916E0280FD16C081FD16C082FD10
:100CA00016C080916D028823A1F0883280F428E07C
:100CB000829FC001112468E270E00E943024862FD8
:100CC000672B39F0089582E0089584E0089588E064
:100CD000089581E0089580916E0280FD14C081FD29
:100CE00014C082FD16C080916C02882381F08E3181
:100CF00080F420E5829FC00111246EE170E00E9423
:100D00003024862F089584E1089588E2089588E0CC
:100D1000089580E50895282F35EB2303C0011124A1
:100D200097FF04C080589109892F089580589F4FDC
:100D3000FBCFFC01EE0FFF1FE80FF91FE05AFD4F3C
:100D40006183408322830895869A08950895CF93FE
:100D5000DF9380918C0380FD0BC0D0E0C0E020E0E9
:100D600040E060E0CE01E5DF2196C430D105B9F75F
:100D7000F1D7DF91CF910895FF920F931F93CF93F7
:100D8000DF93182F062FF42E80918C0380FF0CC068
:100D9000D0E0C0E02F2D402F612FCE01CADF219679
:100DA000C430D105B9F7D3DFCDB7DEB7E5E00C9499
:100DB0007E24CF93DF93EC0140918F039C81892F98
:100DC000817090FD842F692F627091FD642F92FFD6
:100DD00040E0D2DF8C8190E00196877099278C8368
:100DE000DF91CF910895B0E0A0E0E9EFF6E00C9438
:100DF0005F249B01E82FF0E0EB5EFD4F311109C04D
:100E0000E4918E2F7E2F6E2FCDB7DEB7E8E00C94E5
:100E10007B24E32EF12CE491FE2F0E2F10E046E010
:100E2000649FC0011124CFEFD0E0BE010E941C24BA
:100E3000AB01822F90E0880F991F25E5249FB00118
:100E4000259F700D1124861B970B982F990F980FD3
:100E5000BE016E197F09609FD001619FB00D709F28
:100E6000B00D11248B2F399F90011124232F33278C
:100E7000BE01621B730B609F9001619F300D709FDC
:100E8000300D11246E01C91AD108CE9CB001CF9C3F
:100E9000700DDE9C700D1124672F7727C61BD70BB2
:100EA000C09F7001C19FF00CD09FF00C11247F2DCA
:100EB00042305105A1F050F44115510509F4A3CF7A
:100EC0004130510581F07B2F832F9DCF4430510558
:100ED00069F080F04630510509F495CFF4CFEB2F3F
:100EE0008F2D7F2F90CF7E2FE32F8DCFEF2D7B2F58
:100EF0008F2F89CF732FEB2FFBCFCF93762FC22F5E
:100F0000682F842F70DF472F282F8C2F90E011DF60
:100F1000CF9108950F931F93CF93DF938C01D0E06F
:100F2000C0E0F801948160918E0380918D03C230FE
:100F3000D105BCF49923B9F09E0140918F03DDDF08
:100F40002196C430D10569F702DFF801848190E071
:100F50000196817099278483DF91CF911F910F9122
:100F60000895992349F39E0140E0E9CFB0E0A0E065
:100F7000ECEBF7E00C945B24EC014C81042F10E0C7
:100F80009801D8010E94C3259B01AC010E949125C4
:100F90004B015C01E0E2F0E0E01BF10BA5E5B0E005
:100FA000AC019B010E9491256B017C019F01DF0137
:100FB0000E9449249B01AC010E949B259B01AC012E
:100FC000280D391D4A1D5B1DC701B6010E94A125D0
:100FD000022F822F90E02A3280F543E0249F900177
:100FE000112435952795122F1095F12CE12C85E5CC
:100FF000D82ED01A8E2D869581F58D2D9701412FF3
:1010000060918E037ADF5FEFE51AF50A84E0E81657
:10101000F10481F79CDE9C8181E0992319F09032E4
:1010200019F48FEF8093290180912901890F8C8316
:10103000CDB7DEB7ECE00C94772425E530E0A901CC
:10104000481B590BCA019A01220F331F280F391F61
:1010500037FFC7CF2F5F3F4FC4CF802FCFCFCF9366
:10106000DF93D0E0C0E020E040E060E0CE0161DE50
:101070002196C430D105B9F7D0E0C0E080914B0291
:10108000082E000C990BC817D9075CF18091280134
:10109000082E000C990B8C179D071CF19E014091A6
:1010A0008F0360918E0380918D0327DF2196C430DA
:1010B000D10521F74CDE8091270190914B02980FCA
:1010C00090934B0220912801280F2093280112169B
:1010D00014F493301CF0819580932701DF91CF9118
:1010E000089520E040E060E0CE0123DEDFCFEF9204
:1010F000FF920F931F93CF93DF93FC018281FF2414
:10110000FA9480FD02C0FF24F394D0E0C0E020E018
:1011100040E060E0CE010DDE04E010E0E12C8091C3
:101120004A028E0D853084F18370082E000C990BD5
:10113000C817D90789F480918F03809FA001819FF0
:10114000500D112455954795559547959E016091F1
:101150008E0380918D03D1DEEF0C01501109F9F659
:101160002196C430D10599F6F2DD80914A02F1E072
:10117000FF1210C081110CC083E080934A02CDB7EA
:10118000DEB7E6E00C947D2487FFCFCF8C5FCDCF18
:101190008150F3CF90E0019683709927EECFFF92B4
:1011A0000F931F93CF93DF93EC01F12C10E000E03D
:1011B0008C81980140918F0360918E038F0D9DDE8D
:1011C0000F5F1F4F8FE3F80E0430110589F7BFDD65
:1011D0009A818C8190FF07C08F5F8C83CDB7DEB77B
:1011E000E5E00C947E248150F8CF762F90918C030B
:1011F00090FF08C0682F842FF6DD962F672F482FA9
:10120000892FBACD0895CF93DF93EC01ECE8F3E09A
:10121000438162818C81E9DF8C818F5F8C83DF91D8
:10122000CF910895CF93DF93EC01EC81F0E0E65E7F
:10123000FC4F4491ECE8F3E062818181D6DF8C8140
:101240008F5F8C83DF91CF91089508950895982F33
:10125000907F903BE9F040F49039D1F0903AC1F0A2
:101260009038B1F080E00895903D19F020F4903C62
:10127000C9F782E00895903E59F0903F99F7815F59
:101280008F3080F7E82FF0E0ED58FE4F8081089511
:1012900083E00895A7E0B0E0E0E5F9E00C94622473
:1012A0008C0108511F4F80919102843009F06AC06F
:1012B000809116018F708093E9008091E80082FF91
:1012C00061C08091E80085FF5DC050E040E064E0CF
:1012D00070E0CE01019691DA8091E80085FD05C0AD
:1012E0008091E8008B778093E800FA808F2DAFDF44
:1012F000282FFD828B818E838C818F8321110AC0E0
:101300008981843039F1873029F1863029F121E053
:10131000853049F630E0E5E0F0E0EC0FFD1FE30F2B
:10132000F11DF0804FB7F894D8011196EC91119708
:10133000F0E0CF01019612966C9170E00E9430248B
:10134000D8015C915817190649F44FBF3F5F321717
:1013500010F3A9CF23E0DECF22E0DCCF13968D91EE
:101360009C911497E80FF91FF08211968C911197B8
:1013700090E0019612966C9170E00E943024F80182
:101380008183E3CF2796E5E00C947E24A4E0B0E0CF
:10139000ECECF9E00C9460247B01142FD22E4A83EC
:1013A0002B830C83842F53DF811139C082E0E81630
:1013B000F10481F183E0E816F10441F081E0E816E0
:1013C000F10421F5173F29F485E004C087E0073FC9
:1013D00009F084E08983809191028430B9F480918E
:1013E00011018F708093E90050E040E064E070E00C
:1013F000CE0101962ADA811109C08091E80085FDAD
:1014000005C08091E8008E778093E8002496E7E09D
:101410000C947C2487EFD812DCCF86E0DBCF1295CA
:101420001F701983D8CF80E00895F894E82FE295D3
:10143000EF70F0E031A1282F2F7081E090E001C023
:10144000880F2A95EAF7982F9095932391A392A15C
:10145000892B82A37894089590917F0292FF10C007
:1014600041E0282F2471243009F040E031E0282F9A
:101470002871283009F030E0431711F02CE0822762
:1014800093FF10C041E0282F2471243109F040E07F
:1014900031E0282F2871283109F030E0431711F08E
:1014A0002CE082273091800230FF10C051E0282FBD
:1014B0002171213009F050E041E0282F28712830B7
:1014C00009F040E0541711F029E0822731FF10C0E5
:1014D00041E0282F2171213109F040E031E0282F2F
:1014E0002871283109F030E0431711F029E08227F4
:1014F00094FF02C083FD877E089582389105B9F17B
:10150000B0F48133910509F47DC048F48932910526
:1015100009F46DC08A32910509F47BC008958533C2
:10152000910509F45FC08933910509F10895833E5F
:101530009105D9F138F4803E910529F1823E91055B
:1015400079F10895863E9105D9F1873E910509F418
:101550003EC0843E910541F52091800221FF24C0C8
:1015600080917F0284FD19C087EE90E0089520915C
:101570007F02237009F05AC02091800223FF14C01B
:1015800089E290E0089520917F0220FD38C03091DB
:10159000800230FF09C024FF43C090E080E008953E
:1015A00020917F0222FDF7CF089520917F0222FD36
:1015B0003AC03091800230FD39C024FFF5CFEDCF25
:1015C00020917F0223FFF0CF24FDE7CFCDCF2091E4
:1015D0007F0223FD2EC03091800231FFEECF84EEDA
:1015E00090E0089520917F0225FFDECFC9CF2091A2
:1015F0007F0225FD21C02091800223FFD5CF89E302
:1016000090E0D2CF20917F0226FFCECF8AE290E0F9
:10161000089520917F0226FFC7CF81E390E00895CF
:1016200083EE90E0089582EE90E0089580EE90E0E1
:10163000089586EE90E0089585E390E0089566238E
:1016400009F453C08D3C29F446DB819580937602E2
:10165000F8CA8E3C11F43FDBF9CF8F3C29F43BDB19
:10166000819580937502F4CF803D11F434DBF9CF7E
:10167000893D21F40EDB80937702EACF8A3D19F48D
:1016800008DB8195F8CF8B3D29F403DB81958093AE
:101690007802DECF8C3D11F4FCDAF9CF9FE2980F8F
:1016A000983070F4815D990B21E030E001C0220F89
:1016B0008A95EAF780917402822B80937402C8CFD6
:1016C0008D3D31F480916E02816080936E02C0CFB7
:1016D0008E3D21F480916E028260F7CF8F3D09F03C
:1016E000B7CF80916E028460F0CF409175028D3C3F
:1016F00059F48091760287FF0DC010927602411155
:101700000BC010926C0208C08E3C81F4809176026E
:1017100018169CF3442381F080917702909178020F
:10172000892B09F095CF10926D0292CF8F3C49F42E
:1017300047FFF0CF10927502809176028111ECCFB5
:10174000E0CF803D19F41416ACF3E4CF909177020A
:10175000893D29F41916F4F610927702DBCF8A3D01
:1017600019F497FFD7CFF8CF909178028B3D29F4E9
:1017700097FFD0CF10927802CDCF8C3D19F4191677
:10178000CCF3C8CF9FE2980F983090F4815D990B0D
:1017900021E030E0B90102C0660F771F8A95E2F7B9
:1017A000CB01809590917402892380937402B2CF0B
:1017B0008D3D31F480916E028E7F80936E02AACFB0
:1017C0008E3D21F480916E028D7FF7CF8F3D09F021
:1017D000A1CF80916E028B7FF0CF292F332740E07D
:1017E0002115310511F0C90148E09C0164E03695EE
:1017F00027956A95E1F72115310511F04C5FC90174
:101800009C0136952795369527952115310511F0C0
:101810004E5FC90196958795892B09F04F5F842FFC
:101820000895A6E0B0E0E7E1FCE00C946324FC013D
:1018300096E0DE01119601900D929A95E1F7809164
:1018400035029091360219810A810230A8F41430D1
:1018500098F4C3DF811113C084E0089FF0011124C4
:10186000E10FF11DEE0FFF1FE051FE4F85919491A6
:101870002696E4E00C947F2480E090E0F9CF81E0AC
:10188000FCCFA0E2B0E0E7E4FCE00C9465249C010E
:10189000DE01119680E2FD0111928A95E9F7E0914F
:1018A000E601E15091E0E53020F4F0E0E15DFE4F2B
:1018B000908199833C832B83E0917B02F0917C02A1
:1018C000309741F00284F385E02D309719F060E203
:1018D000CD010995A096E2E00C9481242FB7F894ED
:1018E00060918202709183028091840290918502BE
:1018F0002FBF08954F925F926F927F928F929F9227
:10190000AF92BF92CF92DF92EF92FF92CF93DF938D
:10191000C0919403D0919503BE0190E080E00E94B5
:1019200000274B015C018091BD03882309F4ABC003
:10193000C0909E03D0909F03E090A003F090A1037D
:101940004090B1035090B2036090B3037090B40321
:1019500020E030E0A901C701B6010E94372687FDCB
:1019600085C028E431EE4AEF5EE3C701B6010E946C
:10197000D72718160CF47EC0A7019601C301B20147
:101980000E94372618160CF07EC0A701960160E071
:1019900070E080E89FE30E94D2259B01AC01C30167
:1019A000B2010E94D72787FF72C020E030E040E8F4
:1019B0005FE3C701B6010E94D325A70196010E94EB
:1019C000D325A30192010E947B28A70196010E94C2
:1019D000D2256B017C0120E030E0A9010E9437266E
:1019E00087FD51C020E030E040E85FE3C701B60169
:1019F0000E94D72718160CF44AC0A501940160E094
:101A000070E080E89FE30E943B26A70196010E94B8
:101A1000D72787FF43C020E030E040E85FE3C501FF
:101A2000B4010E94D225A50194010E943B26A70182
:101A300096010E94372618164CF4A7019601C5019D
:101A4000B4010E947B280E941828EB01CE01DF918F
:101A5000CF91FF90EF90DF90CF90BF90AF909F908D
:101A60008F907F906F905F904F900895C12CD12CF4
:101A7000760182CF98E4C92E91EED92E9AEFE92E05
:101A80009EE3F92E79CFC12CD12C7601B6CFC12C93
:101A9000D12C80E8E82E8FE3F82EAFCFD0E0C0E065
:101AA000D5CF0F93CF93DF93CCE8D3E04881598112
:101AB0006A817B8188E090E00E94592528813981E4
:101AC0004A815B816C817D818E819F8100E20E94D1
:101AD000A724622F83E290E00E944725DF91CF91F7
:101AE0000F910895B0E0A0E0E8E7FDE00C945C24DD
:101AF000182FD62E042FC22E90918C0390FF21C058
:101B0000E92FE695E695AE2FB0E0AE57BE4F8C912B
:101B1000809348029C7F9430C9F4612F7D2D842FDF
:101B200062D9962F672F482F892F26D910938D03BE
:101B3000D0928E0300938F03CC2019F08CE893E0B1
:101B4000B0DFCDB7DEB7EBE00C947824823019F427
:101B500000918F03EBCF863019F410918D03E6CFFF
:101B60008930D9F3893111F7E9512E2F2170922E46
:101B7000E695F0E0EB5EFC4FE491CE2FD0E0B12C87
:101B8000A12CF12CE12CC50196958795969587950A
:101B9000911010C0810F9701402F6D2DAED98FEF9E
:101BA000E81AF80AAC0EBD1E24E0E216F10459F75B
:101BB000CED8BCCF212F281B822FEDCFECE8F3E04D
:101BC000438128E0421B08F440E021E062818181EA
:101BD00089CFECE8F3E0438128E0420F08F44FEFAF
:101BE00021E0628181817ECFECE8F3E0628128E030
:101BF000621B08F460E021E04381818173CFECE84F
:101C0000F3E0628128E0620F08F46FEF21E0438186
:101C1000818168CFECE8F3E0818121E0438162813A
:101C2000885060CFECE8F3E0818121E0438162815C
:101C3000885F58CF80919003882319F0815080935A
:101C400090038CE893E02DCF80919003833018F4BB
:101C50008F5F809390038CE893E023CFECE8F3E070
:101C600085E0808311828FEF828383831482CF018A
:101C700018CF9B01BA01909191029430E1F48093C6
:101C8000E9009FEF8091E800915085FD06C085ED49
:101C90008A95F1F700009111F5CF8091E80085FF5A
:101CA0000AC050E040E0C9010E9425048091E8008C
:101CB0008E778093E800089543E050E0BC0184E013
:101CC000D8CF46E050E0BC0184E0D3CF40E250E002
:101CD000BC0184E0CECFCF93DF93EC0148E050E02D
:101CE000BC0181E0C6DF88E0FE01A7E8B2E0019018
:101CF0000D928A95E1F7DF91CF910895603229F432
:101D000040E250E0BC0182E0B4CF089581E08093CE
:101D1000E00080E28093D8001092C9008FE19EE439
:101D20000197F1F700C0000087E090EBDC018093A1
:101D3000D0039093D103A093D203B093D30388E14F
:101D40009CE00FB6F894A895809360000FBE909326
:101D50006000FFCF31B33F7B21B320644FB7F894CD
:101D600080E692E0FC015191CF0168E021BB0000C8
:101D700000C057FF31BB550F000000C000C000C0BD
:101D800031BB00C06A9591F7F2E08C369F0751F79E
:101D90004FBF8FE594E00197F1F700C00000089570
:101DA0004F925F926F927F928F929F92AF92BF926B
:101DB0000F93CF93DF9388E090E00E943D252B01A5
:101DC0003C01CCE8D3E0688359828A837B821C8201
:101DD0001D821E821F8283E290E00E943525282FFB
:101DE00030E040E050E060E070E080E090E000E251
:101DF0000E948C2424293529462957292883398390
:101E00004A835B836C837D838E839F83DF91CF9135
:101E10000F91BF90AF909F908F907F906F905F9049
:101E20004F900895B0E0A0E0E8E1FFE00C94592461
:101E3000FC018280648081E08483EAE1F3E0949095
:101E4000E9E9F3E0E49100918F030695015810E071
:101E5000000F111F012F1127CCE4D2E0D12CC12C8F
:101E6000AA24AA94B12C77247A94E919EE2EF12CA5
:101E700082E0881530F080918D03888380918E03F5
:101E80008983611016C01B821A8296014A8169817A
:101E9000888133D88FEFC81AD80A259684E0C816EF
:101EA000D10431F70E94A706CDB7DEB7EEE00C945F
:101EB00075248B818823E9F081508B83879DC00135
:101EC00011246C8170E00E941C24FB01FF27E65E58
:101ED000FC4F8491E82FE919E79DC0011124B70157
:101EE0000E941C2480918F03689FB00111247A8383
:101EF000CCCF0E940925B5010E943024801791079C
:101F00000CF0C3CF82E0881588F40E940925B50142
:101F10000E94302488830E94092520918E032695F3
:101F2000622F70E00E943024280F29831A8280914A
:101F30008F03893C20F088EC8C838B83A6CF84317F
:101F4000D8F784E1F9CF60918C036695669570E0CF
:101F50004BE050E08CE191E00E941B25892B19F4A5
:101F600081E0809349020E9456059093430280933A
:101F70004202089590918C0390FF25C093708111C7
:101F800023C0946090938C03662319F08CE893E04F
:101F900088DD60918C036695669570E04BE050E0BB
:101FA0008CE191E00E941B25892BB1F0109249022F
:101FB00081E08093450220E040918F0360918E0381
:101FC00080918D038FCD08958B3210F0986ADACF0F
:101FD000880F880F982BD6CFB6DFEACF80918C037D
:101FE00086958695815009F48AE261E0C3CF80919D
:101FF0008C03869586958F5F8B3208F081E061E0D7
:10200000B9CF8091080290918803892B90912C017F
:10201000913059F590917F0297FF27C08093C701B7
:1020200040E250E068EE71E086EC91E00E942825E5
:10203000892BD1F080E2E6ECF1E0A8EEB1E001906E
:102040000D928A95E1F7E0917B02F0917C02309746
:1020500059F00480F581E02D309731F086E08093CF
:10206000C60186EC91E0099508958093BE0148E091
:1020700050E069E072E08EEB91E00E942825892B08
:1020800099F388E0EEEBF1E0A9E0B2E001900D9267
:102090008A95E1F7E0917B02F0917C02309721F381
:1020A0000280F381E02D3097F9F28EEB91E0DBCFE7
:1020B0001092880380912C01813029F580917F0254
:1020C00087FF21C0E8ECF1E08EE1DF011D928A95E7
:1020D000E9F790E080E00E94EB0590E080E00E944C
:1020E000C405109208028DDF86E0E3E7F2E0DF012D
:1020F0001D928A95E9F710926C0210926D0210926F
:102100006E020C942106E0ECF1E086E0DECFAAE25C
:10211000B0E0EDE8F0E10C94642483E992E02091D2
:10212000F100DC012D93CD01B2E08B399B07B9F7AB
:1021300080919402833009F472C0B8F4813009F4BC
:1021400049C0823009F4B6C08091E80083FF3EC1E7
:1021500080919302909194029A3008F037C1E92F50
:10216000F0E0E251F74D0C9443248A3009F491C019
:102170008B3009F471C0893039F780919302813234
:1021800019F78091970290919802009711F00297A9
:10219000D9F68091E800877F8093E8008091E8007D
:1021A00082FF38C09091F3008091F200029731F4E1
:1021B0008091F100813011F0863021F48091F1009E
:1021C00080932B018091E8008B778093E8000E9438
:1021D0004D04BACF80919302813A09F0B5CF809136
:1021E000E800877F8093E8008091970290919802A1
:1021F000892B61F468E087E892E070E00E94F804BF
:102200008091E8008B778093E8009ECF60E090E0BB
:1022100080E0F3CF809191028111C0CF95CF809162
:102220009302813A09F090CF8091970290919802A1
:10223000892B09F089CF8091E800877F8093E8009F
:102240008091E80080FFFCCF80912C018093F10009
:102250008091E8008E77B9CF80919302813209F0A6
:1022600073CF8091970290919802892B09F06CCFDF
:102270008091E800877F8093E8000E944D0481E010
:1022800090919502911101C080E080932C0110DFA4
:102290005BCF80919302813209F056CF8091E800A4
:1022A000877F8093E8000E944D048091960280937E
:1022B0002A014ACF80919302813A09F045CF80915B
:1022C000E800877F8093E8008091E80080FFFCCFE2
:1022D00080912A01BBCF803899F0823809F076C00E
:1022E000809197028F70873008F070C08093E9006A
:1022F0008091EB0085FB882780F91092E90006C0E9
:1023000080918F0290919002911182609091E800EB
:10231000977F9093E8008093F1001092F1008091F4
:10232000E8008E77C2C1882309F4AFC1823009F07A
:102330004DC0809195028111B3C1809197028F7039
:102340002FEF280F263008F041C08093E90020913C
:10235000EB0020FFA5C1933031F48091EB00806247
:102360008093EB009DC19091EB0090619093EB0006
:1023700021E030E001C0220F8A95EAF72093EA00BD
:102380001092EA008091EB008860EACF81111EC0B4
:10239000109195021F778091E3008078812B8093C4
:1023A000E3008091E800877F8093E8000E944D045D
:1023B0008091E80080FFFCCF8091E30080688093EB
:1023C000E30082E0111183E0809391028091E800A4
:1023D00083FF0AC08091E800877F8093E8008091A6
:1023E000EB0080628093EB00AA96E3E00C948024DB
:1023F0008058823058F720919502309196022C3DFA
:10240000E3E03E07A1F583E08A838AE289834FB740
:10241000F894DE01139620E03EE051E2E32FF0E075
:1024200050935700E49120FF03C0E295EF703F5FA7
:10243000EF708E2F90E0EA30C0F0C7968D939D9399
:102440002F5F243159F74FBF8091E800877F809339
:10245000E8006AE270E0CE0101960E94F8048091E3
:10246000E8008B778093E800B1CFC096E7CF8091EA
:10247000970290919802432F55274330510509F454
:102480004AC078F54130510509F47AC08FEB90E0ED
:10249000EAE1F4E04230510509F098CF2091E800DC
:1024A000277F2093E8002091990230919A028217A9
:1024B000930708F49C0140E02115310509F065C03F
:1024C000411163C08091E80082FDC9CF80919102E3
:1024D000882329F2853019F28091E80083FFF2CF3A
:1024E000BECF4132510509F43CC04232510509F0DA
:1024F0006DCF8330910508F069CFFC01EE0FFF1F0F
:10250000E055FE4F0190F081E02D83559E4FDC0198
:102510008C9190E01AC0332721303105D1F021157C
:10252000310561F02230310509F050CFEBEEF4E0D7
:10253000E4918E2F90E0EBEEF4E007C0EDE1F5E0E2
:10254000E4918E2F90E0EDE1F5E0009709F43ECFA5
:10255000A5CFE7E0F5E0E4918E2F90E0E7E0F5E02D
:10256000F4CF8330910508F031CF880F991FFC011B
:10257000EA54FE4F0190F081E02D89E090E08ECF8B
:1025800082E190E0E9EDF4E089CF80919102882327
:1025900009F465CF853009F462CF8091E80083FDAE
:1025A0005ECF8091E80082FD8DCF8091E80080FFB2
:1025B00083CF9091F3008091F2002115310519F03D
:1025C0008830910550F041E0089709F040E0809193
:1025D000E8008E778093E8006FCF44914093F1003C
:1025E0003196215031090196E8CF803809F0EECEBE
:1025F0008091E800877F8093E80080919202809329
:10260000F1008DCE8111E2CE10919502123008F0CA
:10261000DDCE8091E800877F8093E80010939202DE
:102620000E944D04112311F084E005C08091E30065
:1026300087FDFACF81E08093910242E061EC81E076
:102640000E946C0442E261EC84E00E946C0442E26D
:1026500061EC82E00E946C0442E260EC83E00E9444
:102660006C0442E361E885E00E946C0442E360E8A8
:1026700086E00E946C0480919102843021F081E018
:1026800080932D01A3CE82E0FBCF80919502813013
:1026900009F09CCE81E0933009F080E080939002B5
:1026A0001092E9008091E800877F8093E8000E9403
:1026B0004D048CCEFDDC2FEF84E39CE02150804064
:1026C0009040E1F700C0000088E19CE00FB6F8946C
:1026D000A895809360000FBE90936000FFCF809517
:1026E000909188039823909388038BCC882309F4D6
:1026F00056C0823861F40E94120681FF50C089E3FF
:102700000E9490057EDC89E30E9465057ACC8338BF
:1027100051F40E94120680FF42C083E50E9490059A
:1027200070DC83E5F1CF843851F40E94120682FFF9
:1027300036C087E40E94900564DC87E4E5CF9CEF17
:10274000980F913A08F390E2980F983088F48770C8
:1027500021E030E0A90102C0440F551F8A95E2F73D
:10276000CA01809590918803892380938803CECFF6
:102770009BE5980F933020F490E080E00C94EB05FB
:1027800098E5980F9B3120F490E080E00C94C4050C
:1027900093E3980F933118F460E00C941F0B0895A5
:1027A000CF93C82F8823B9F08238B9F40E9412065B
:1027B00081FD11C089E30E94900523DC2FEF87EE95
:1027C00093E0215080409040E1F700C0000089E391
:1027D0000E94650516DCCF910895833899F40E9414
:1027E000120680FDF8CF83E50E9490050ADC2FEFEA
:1027F00081EE94E0215080409040E1F700C000005D
:1028000083E5E6CF843899F40E94120682FDE3CF77
:1028100087E40E949005F5DB2FEF81EE94E02150D4
:1028200080409040E1F700C0000087E4D1CF8CEFFA
:102830008C0F813A80F580912C018130F9F48091E0
:102840007F0287FF1BC0EC2FE695E695E695F0E04A
:10285000EA53FE4F828190E04C2F477021E030E038
:1028600002C0220F331F4A95E2F782239323892B5C
:1028700071F08C2F0E946505C4DB09C0E0ECF1E02B
:102880008191C817B1F321E0E63CF207C9F78C2F1C
:102890000E9490059FCF80E28C0F883068F4C7704B
:1028A00021E030E001C0220FCA95EAF78091880349
:1028B000822B809388038ECFEBE5EC0FE33040F45E
:1028C000F0E0EC5CFE4F808190E00E94EB0583CF4E
:1028D000E8E5EC0FEB3150F4F0E0EE0FFF1FE95CA0
:1028E000FE4F808191810E94C40575CF83E38C0FD8
:1028F000833108F070CF61E08C2F0E941F0B6BCFEB
:10290000EF92FF920F931F93CF93DF93C62FD42F95
:10291000022FFC0185818823D1F060938B030E94F4
:10292000560590938A0380938903C77021E030E0B5
:1029300001C0220FCA95EAF780918803822B809309
:1029400088035FDBCDB7DEB7E6E00C947D24809191
:102950008B0368133BC0E0908903F0908A030E94C8
:1029600056058E199F09883C910580F510E21D0FD0
:10297000CD17E9F080E28C0F883038F4C77081E021
:1029800001C0880FCA95EAF7AADE183080F42D2F0F
:10299000277081E090E0AC0102C0440F551F2A95DA
:1029A000E2F780918803842B809388032ADB802FB1
:1029B000F7DE802F9BDE183008F0C4CFD77081E09F
:1029C00001C0880FDA95EAF78ADEBCCFC77081E0D4
:1029D00001C0880FCA95EAF7F7CFACE0B0E0E3EFAB
:1029E000F4E10C9461244F83588769877A878B8739
:1029F0009C8791111092080286E0FE013796DE0155
:102A0000119601900D928A95E1F78D81882389F1C5
:102A100061E0CE0101960E94110C61E0CE010196A9
:102A20000E94110C8D81882321F161E0CE01019675
:102A30000E94110C8C018E810732110551F0F801B2
:102A4000E851FC47E730F105B0F5E850F74D0C943C
:102A50004324882371F08091E60190E0019666E0BE
:102A600070E00E9430248093E6010E947A0C0E945C
:102A7000410C2C96E6E00C947D2426E241EE61EEBA
:102A8000CE0101963DDFF5CF27E245EE65EEF8CFAA
:102A900026E241EE60EEF4CF27E245EE64EEF0CFA1
:102AA00026E241EE62EEECCF27E245EE66EEE8CF9D
:102AB00028E241E0EBCF882309F444C210928B0353
:102AC000C8019057839708F02AC284E090E00E94E2
:102AD00042259093800280937F02F801E150F047F5
:102AE000E232F10520F4E150F74D0C94432480913B
:102AF0007F02816080937F0292C080918002886013
:102B0000809380028CC080917F028260F3CF80919D
:102B10007F028460EFCF80917F028860EBCF80914D
:102B200080028160EDCF809180028260E9CF809148
:102B30007F028061DFCF80917F028062DBCF809156
:102B40007F028064D7CFB4DA80917F028068D2CFD1
:102B500080917F028C60CECF809180028360D0CF45
:102B600080917F028E7FC6CF80918002877FC8CF01
:102B700080917F028D7FBECF80917F028B7FBACF05
:102B800080917F02877FB6CF809180028E7FB8CF01
:102B9000809180028D7FB4CF80917F028F7EAACFFB
:102BA00080917F028F7DA6CF80917F028F7BA2CF05
:102BB0007FDA80917F028F779DCF80917F02837F24
:102BC00099CF809180028C7F9BCF80917F0282FB86
:102BD000992790F921E0922790FB82F990FB83F9E5
:102BE00089CF80918002982F909591708E7F892B4C
:102BF00090FB81F985CF90917F02892F8F7B96FF83
:102C0000806478CF55DA90917F02892F97FB87F9FE
:102C1000805870CF61E08EE090E00E94472560917F
:102C20007F027091800284E090E00E94612540DA8A
:102C300020CF60E0F0CF90917F02892F8F7E94FFAC
:102C4000806158CF90917F02892F8E7F90FF8160A5
:102C500051CF90918002892F877F93FF886050CF5A
:102C600085E36CC185E378C180918C0380FF0CC043
:102C70008E7F80938C038CE893E00E94510D10921C
:102C800049020E94A706F5CE816080938C0361E023
:102C9000869586956FD9EDCE882321F09FD9E9CE10
:102CA0008823E1F3A4D9E5CE882329F00E940A0EF7
:102CB000E0CE8823D9F30E94120EDBCE882329F0C0
:102CC0000E94F40DD6CE8823D9F30E94FF0DD1CEF9
:102CD000882329F00E94DE0DCCCE8823D9F30E94F0
:102CE000E90DC7CE882329F00E941A0EC2CE882390
:102CF000D9F30E94240EBDCE01302CE71207C9F093
:102D000003308CE7180779F001151C4799F4D0D9E6
:102D10002FEF84E39CE0215080409040E1F700C019
:102D200000000E94860E6FEF7FEF90E080E00E942F
:102D30006125C0DC19810A818091350290913602AB
:102D4000023068F5143058F50E94ED0B81112AC04D
:102D500024E0029FF0011124E10FF11DEE0FFF1F8F
:102D6000E051FE4F859194910E947D0A8C01803E36
:102D7000910540F58D3C910508F05EC0883A9105BB
:102D800098F4853A910508F04EC08130910529F1FB
:102D9000009719F1049708F510E000E01EC080E0EC
:102DA00090E0E2CF81E0FCCF833C9105A8F7085A80
:102DB000E02FF0E0EE0FFF1FE95CFE4F0081118174
:102DC00014640BC0011580E21807C8F4011591E0E6
:102DD0001907A0F5083E1105F8F6912F6E81812F95
:102DE00082958F70843009F480C0F0F5823008F449
:102DF00041C060E0CE0101960E94110C3ACEC8019C
:102E0000011520E5120758F1805A9245809720F667
:102E1000802F8F710E942C0A082F10E0102F00279E
:102E200000271F71DACF055AE02FF0E0EC5CFE4F6F
:102E3000008110E01064D1CF1065CFCF812F0E94A8
:102E40002C0AF82EC80199270E947D0A0F2D10E048
:102E5000102F002700271F71082B192BBECF992791
:102E60000E947D0A8C01B9CF853019F6802F0E940F
:102E70001F0BBFCF9F70F92E812F807F19F0F29426
:102E800080EFF822E02E6623B9F0FF2061F080E2A7
:102E9000800F883010F0011109C090918803F92A41
:102EA000F0928803AED88E2D7BDCA3CF90910802E0
:102EB000F92AF0920802F6CF802F18DCFF2009F4DF
:102EC00098CFF09480E2800F883010F0011107C095
:102ED00090918803F922F092880393D88ACF909139
:102EE0000802F922F0920802F8CF812F8695869584
:102EF000837061F0813009F07CCF802F9370611175
:102F000002C080E090E00E94C40573CF802F9370D0
:102F1000611102C080E090E00E94EB056ACF8091D1
:102F2000880306319CE71907D1F48A7A91E009F405
:102F300090E09093E701811193CE89E20E94900581
:102F400060D897CD06312CE7120709F0F3CE8091B7
:102F5000E701811187CE89E20E946505F1CF827277
:102F6000F801E052F847EB30F10508F0C5CEEF5D0F
:102F7000F64D0C944324A6E0B0E0E1ECF7E10C94AC
:102F800063240E9456058C018091110290911202D7
:102F90008017910779F019821A820E945605682FCE
:102FA00049815A81792F80E090E017DD1093120259
:102FB000009311022696E4E00C947F24A8E0B0E090
:102FC000E4EEF7E10C9455241A8219823DE6A32E13
:102FD00031E0B32E10E000E0EE24E394F12C53E74F
:102FE000C52E51E0D52EF50181915F018F3F09F487
:102FF00045C0F894E82FE295EF70F0E021A18F70C2
:10300000A70102C0440F551F8A95E2F7CA01922F0B
:10301000982B91A392A18095892382A3789400C0D4
:10302000EFE6F1E0912C31E021912F3F09F456C0F9
:10303000A22FA295AF70B0E090968C9190E02F7087
:1030400002C0959587952A95E2F780FD47C0832FAA
:10305000982A330FCE16DF0639F7F50131978081B4
:103060008F3F11F00E94150A50EA5A95F1F7E1E0FE
:10307000F0E0EC0FFD1FE00FF11F90820130110511
:1030800051F542E050E0BE016F5F7F4F83E392E075
:103090000E942825892B09F4F1C389819A81909394
:1030A00034028093330281E0809315020E9456051A
:1030B0009093140280931302212C84E90E940E2421
:1030C0006FEF73E07B01E81AF90A8091A20388236D
:1030D00049F00E94172501E010E085CF80E0B8CFCD
:1030E000212CEFC38091C6039091C7038F3F9105B8
:1030F00009F0F0F4E091A703F091A803309749F3A9
:1031000009954B015C018091C8039091C903A0917E
:10311000CA03B091CB030097A105B10509F0C2C164
:103120008092C8039092C903A092CA03B092CB03C5
:1031300040919403509195035C834B834115510555
:1031400009F08A01B70190E080E00E9400276B013E
:103150007C01B80190E080E00E9400279B01AC0157
:10316000C701B6010E943B267B018C0120E030E0C4
:1031700040E85FE30E94D727181624F4E12CF12CD5
:1031800000E81FE37090960380909703C090980327
:10319000D090990330909A0340909B0350909C03E9
:1031A00060909D03232D342D452D562D672D782DB0
:1031B000C6010E94D72787FF87C39701A801672D03
:1031C000782DC6010E94D72718160CF43FC297012C
:1031D000A801632D742D852D962D0E94372687FF1B
:1031E00004C0E32CF42C052D162D232D342D452D54
:1031F000562D672D782DC6010E943726882309F4A5
:1032000029C2272D382DA601B701C8010E94D22559
:103210006D837E838F839887272D382DA601632D9C
:10322000742D852D962D0E94D2259B01AC016D81B8
:103230007E818F8198850E943B2620E030E0A901A5
:103240000E94D3252091BD03211108C221E02093C3
:10325000BD036093B1037093B2038093B303909363
:10326000B40340909E0370909F036090A003509021
:10327000A10320E030E0A901642D772D862D952D46
:103280000E94372687FDDCC228E431EE4AEF5EE378
:10329000642D772D862D952D0E94D72718160CF4B6
:1032A000C8C2E42CF72C062D152D8090B103909008
:1032B000B203A090B303B090B4039701A801C50175
:1032C000B4010E94372618160CF0BFC29701A8015E
:1032D00060E070E080E89FE30E94D2259B01AC0192
:1032E000C501B4010E94D72787FFB3C220E030E0B8
:1032F00040E85FE3B701C8010E94D3259701A80108
:103300000E94D325A50194010E947B289701A80162
:103310000E94D2256B017C0120E030E0A9010E94CF
:10332000372687FD92C220E030E040E85FE3C70126
:10333000B6010E94D72718160CF48BC22091B9034E
:103340003091BA034091BB035091BC03C701B60151
:103350000E94D2254B015C0120E030E0A9010E94CF
:10336000372687FF04C0B7FAB094B7F8B0948B81C2
:103370009C8120E030E040E85FE3009739F0BC0139
:1033800090E080E00E9400279B01AC0160E070E0CB
:1033900080E89FE30E943B269B01AC01C501B4017C
:1033A0000E94D72718160CF078C0A7019601642D4B
:1033B000772D862D952D0E94D72718160CF450C214
:1033C000242D372D462D552D60E070E080E89FE3D9
:1033D0000E94D225A70196010E943726082E000CD4
:1033E000990B892F881F8827881F182F117020E0BC
:1033F00030E040E650E46091B5037091B6038091EF
:10340000B7039091B8030E947B282091AD033091BF
:10341000AE034091AF035091B0030E947B282B0173
:103420003C0120E030E0A9010E94372687FD1AC246
:103430002FE03CE340EF5CE3C301B2010E94D727D9
:1034400018160CF413C2111108C0A3019201C50192
:10345000B4010E94D727181604F5C092B903D09280
:10346000BA03E092BB03F092BC030E947A0CBC0149
:1034700090E080E00E94002720E030EC4FE754E429
:103480000E943B2620E03FEF4FE757E40E947B2855
:103490000E94D426CB010E94410C822D2896E2E1A5
:1034A0000C947124A5019401281B390B4A0B5B0B6A
:1034B000CA01B9010E9400272B013C018092C80378
:1034C0009092C903A092CA03B092CB032DEC3CECBE
:1034D0004CEC5DE30E94372687FD8AC020E030E097
:1034E00048E452E4C301B2010E94D72718160CF435
:1034F00087C020E030E04AE754E4C301B2010E94F3
:103500003B262091C2033091C3034091C4035091E4
:10351000C5030E94D3252B013C014092C203509267
:10352000C3036092C4037092C5036091C603709197
:10353000C7036F5F7F4F7093C7036093C6036F3FEE
:10354000710509F008F4F4CD90E080E00E940027B6
:103550009B01AC01C301B2010E943B264B015C01FF
:103560004090A9035090AA036090AB037090AC0305
:1035700020E030E0A9010E94D72720E030E0A90137
:1035800018160CF04FC0C301B2010E9437268823E1
:1035900009F457C0A3019201C501B4010E947B2820
:1035A0002B013C0120E030E040EA51EC0E9437263C
:1035B00087FD2DC020E030E0A901C301B2010E94C7
:1035C000D72718165CF1C301B2010E94A8269B01FF
:1035D000AC0160E070E080E89FE30E94D225609338
:1035E000CC037093CD038093CE039093CF03A0CDF3
:1035F0002DEC422E2CEC522E652C2DE3722E79CF21
:10360000412C512C98E4692E92E4792E72CF412CF2
:10361000512C80EA682E81EC782ED5CF412C512C8C
:103620003201D1CFC501B4010E94D72787FF09C05D
:1036300020E030E0A901C301B2010E9437268111C8
:1036400048CD60E070E080E89FE3C9CFE72CF82C1C
:103650008601CBCD60E070E0CB01F4CD4090B103AA
:103660005090B2036090B3037090B403A301920131
:103670000E94D2256B017C012091CC033091CD03B7
:103680004091CE035091CF030E947B28A301920169
:103690000E94D3256093B1037093B2038093B30368
:1036A0009093B4034090BE035090BF036090C0035A
:1036B0007090C10320E030E0A901C701B6010E946B
:1036C000D727812C912CB0E8AB2EBFE3BB2E181668
:1036D00094F020E030E0A901C701B6010E9437262E
:1036E000812C912C540187FF06C0812C912CA0E8DD
:1036F000AA2EAFEBBA2E20E030E0A901C301B2013F
:103700000E94D72718169CF020E030E0A901C301E1
:10371000B2010E943726412C512C320187FF0DC087
:10372000412C512CE0E86E2EEFEB7E2E06C0412C92
:10373000512CF0E86F2EFFE37F2EA3019201C5010B
:10374000B4010E94372611E0811113C020E030E05F
:10375000A901C501B4010E943726811109C011E0F9
:1037600020E030E0A901C301B2010E943726811197
:1037700010E0C092BE03D092BF03E092C003F0926B
:10378000C10310FF47C020E030E0A901C701B60126
:103790000E94372687FF04C0F7FAF094F7F8F094F8
:1037A00022E538EB4EE75FE36091B5037091B60315
:1037B0008091B7039091B8030E947B282B013C01B4
:1037C0002AE037ED43EA5BE3C701B6010E947B289C
:1037D0009B01AC01C301B2010E94D3256B017C01A6
:1037E00020E030E0A9010E94372687FD17C020E0C5
:1037F00030E040E85FE3C701B6010E94D727181602
:103800008CF0C092B503D092B603E092B703F09269
:10381000B80327CDC12CD12C7601C2CFC12CD12C1D
:103820007601EFCFC12CD12C70E8E72E7FE3F72E85
:10383000E8CF58E4E52E61EEF62E0AEF1EE335CD13
:10384000E12CF12C00E010E030CDC12CD12C760120
:1038500075CDC12CD12C40E8E42E4FE3F42E6ECD73
:1038600081E0C3CD412C512C3201EDCD3FE0432E00
:103870003CE3532E30EF632E752CE5CD20901502DE
:10388000222009F419CCE0901302F09014020E9457
:1038900056058E199F09059708F40ECC42E050E0BA
:1038A00063E372E08AE392E00E942825892B09F401
:1038B00017CC809133029091340290933B02809315
:1038C0003A0210921502F9CB20E030E040E85FE3C5
:1038D000B701C8010E94D727712C812CC12CD12C93
:1038E000312C412C90E8592E2FE3622E18160CF043
:1038F00088CCE12CF12C00E81FE383CC1F920F92BF
:103900000FB60F9211242F933F934F935F936F93B2
:103910007F938F939F93AF93BF93CF93DF93EF9357
:10392000FF93D091E900DF708091EC00C82FC17047
:1039300080FDC0E81092E9008091F000877F8093BD
:10394000F00078940E9487101092E9008091F000B6
:1039500088608093F000CD2BCF70C093E900FF9179
:10396000EF91DF91CF91BF91AF919F918F917F9117
:103970006F915F914F913F912F910F900FBE0F90DC
:103980001F9018951F920F920FB60F9211242F932C
:103990003F934F935F936F937F938F939F93AF93D7
:1039A000BF93EF93FF938091E10082FF09C0809164
:1039B000E20082FF05C08091E1008B7F8093E100EF
:1039C0008091DA0080FF24C08091D80080FF20C061
:1039D0008091DA008E7F8093DA008091D90080FF99
:1039E000AAC080E189BD82E189BD09B400FEFDCF96
:1039F00081E08093910280918602811109C00E942A
:103A0000AD030E949E048091E20084608093E200F6
:103A10008091E10080FF1AC08091E20080FF16C013
:103A20008091E2008E7F8093E2008091E2008061CD
:103A30008093E2008091D80080628093D80019BC06
:103A400085E08093910283E080932D018091E100D5
:103A500084FF30C08091E20084FF2CC080E189BDEA
:103A600082E189BD99B5892F817090FFFBCF90913C
:103A7000D8009F7D9093D8009091E1009F7E909315
:103A8000E1009091E2009F7E9093E2009091E2002D
:103A900091609093E20090919202992309F451C0B1
:103AA00094E09093910290919102943009F482E015
:103AB00080932D018091E10083FF2CC08091E20072
:103AC00083FF28C08091E100877F8093E10082E03E
:103AD00080939102109292028091E1008E7F8093F8
:103AE000E1008091E2008E7F8093E2008091E2000D
:103AF00080618093E20042E060E080E00E946C041C
:103B00008091F00088608093F00081E080932D0127
:103B100080932C01FF91EF91BF91AF919F918F9175
:103B20007F916F915F914F913F912F910F900FBEB9
:103B30000F901F90189519BC109291021092860256
:103B400067CF9091E30097FD02C0982FAACF93E032
:103B5000A8CF78941F921FB61F9211248F939F9322
:103B6000AF93BF938091820290918302A0918402CF
:103B7000B09185020196A11DB11D809382029093A0
:103B80008302A0938402B0938502BF91AF919F916D
:103B90008F911F901FBE1F9018951F921FB61F92E6
:103BA00011248F939F93AF93BF93809181028111D2
:103BB00013C08091820290918302A0918402B091FF
:103BC00085024196A11DB11D8093820290938302CC
:103BD000A0938402B0938502BF91AF919F918F9182
:103BE0001F901FBE1F901895CDB7DEB7AA970FB6CE
:103BF000F894DEBF0FBECDBF85B7806885BF85B79F
:103C0000806885BF1092C0021092C2021092C10259
:103C100080EC8093850383EC92E0909387038093FC
:103C2000860310928403109283031092A0021092D4
:103C30009F021092A2021092A1021092A40210926E
:103C4000A3021092A6021092A5021092A80210924E
:103C5000A7021092AA021092A9021092AC0210922E
:103C6000AB021092AE021092AD021092B00210920E
:103C7000AF021092B2021092B1021092B4021092EE
:103C8000B3021092B6021092B5021092BA021092CC
:103C9000B90286EC99E090939C0280939B028AE49F
:103CA00099E09093BC028093BB0286E299E09093E6
:103CB000B8028093B70285E299E090939E028093C8
:103CC0009D0284B7877F84BF0FB6F894A895809132
:103CD0006000886180936000109260000FBE80E8F1
:103CE00090E00FB6F89480936100909361000FBE4E
:103CF00081E080932D0183E19AE09093BD01809350
:103D0000BC010E94AD030E949E048091E200846089
:103D10008093E2007894809191028823A1F0109121
:103D2000E9001F709091EC00892F817090FD80E870
:103D3000182B1092E9008091E80083FD0E94871003
:103D40001F701093E90082E084BD93E095BD9AEF67
:103D500097BD80936E0080EF0E94150A81EF0E944C
:103D6000150A80E30E94150A81E30E94150A82E386
:103D70000E94150A83E30E94150A10923B021092DA
:103D80003A0210923402109233028FEF93E0909334
:103D900017028093160210921802109219021092C4
:103DA0001A0210921B0280E090E0A0E8BFE380932B
:103DB0001C0290931D02A0931E02B0931F024CE0C0
:103DC00050E360E47BE34093200250932102609330
:103DD0002202709323021092240280932502909372
:103DE0002602A0932702B09328028EE69CE09093CF
:103DF0002A028093290284E19AEBAFE3B0EC80932E
:103E00002B0290932C02A0932D02B0932E028DECE6
:103E10009CECACECBDE380932F0290933002A09316
:103E20003102B09332028DE1E6E1F2E0A4E9B3E0C1
:103E300001900D928A95E1F71092B1031092B203AE
:103E40001092B3031092B4038AE097EDA3E2BCE3AF
:103E50008093B5039093B603A093B703B093B803D0
:103E60001092B9031092BA031092BB031092BC03D4
:103E700080E992EBAFE3BDE38093CC039093CD0355
:103E8000A093CE03B093CF031092C2031092C3034A
:103E90001092C4031092C5031092C7031092C60378
:103EA0001092C8031092C9031092CA031092CB0358
:103EB0001092BE031092BF031092C0031092C10370
:103EC0001092BD0390E080E0DDD5833E9E4F31F13E
:103ED00063EE7EEF90E080E0F4D560E082E090E079
:103EE000D6D581E090E0909336028093350261E070
:103EF00083E090E0CCD560E074E184E090E0E1D52F
:103F00000E942E0E40E050E0BA018FE090E0D1D543
:103F100040E050E0BA0183E190E0CBD582E090E050
:103F2000A4D580933E0284E090E0ACD590938002CB
:103F300080937F0243D83FEF86E791E03150804085
:103F40009040E1F700C0000039D880913A0280FF2C
:103F500007C06FEF7FEF90E080E0B3D50E94860E40
:103F600083E090E082D590E0909336028093350212
:103F70008091370281112EC08CE893E00E94D00E10
:103F800080918C038C7F71F40E942E0E8CE893E05C
:103F90000E94D00E80918C03982F9C7F8370846048
:103FA000992331F080918C038C3A20F08370886AD9
:103FB00080938C03109249020E94A40680918C0386
:103FC00080FF05C060E0869586950E94BA0F81E06B
:103FD0008093370284E091E090937C0280937B028F
:103FE00010E1E12EFF24F394AA24A394B12C7724AA
:103FF00073948091910210E402E1853009F4F4C1D8
:104000000E94DE1790913A0280913F02981308C2F5
:104010009091400280913B02981302C20E94BB170C
:10402000809149028823D9F180914802E0918C0364
:10403000E695E695E81BE0934402823009F05BC206
:10404000F0E0EF5EFD4FE4910E2F10E0A2E1CA2EEA
:10405000A9E0DA2E80914502882361F01092450292
:104060000E945605909343028093420210924702A9
:10407000109246020E945605E0914202F0914302DE
:104080008E1B9F0B8F3F9F4750F4E00FF11FF09363
:104090004302E093420282E492E0F601099586E051
:1040A000E3E7F2E0DE01119601900D928A95E1F7C7
:1040B00060907402D09075029090760280907702A2
:1040C000C0907802109275021092760210927702D8
:1040D000109278028D2D892909F447C00091710250
:1040E000109172020E9456059C01201B310B909189
:1040F0006C02992309F437C325313105B0F19F3F94
:1041000019F09F5F90936C02DD2059F00E946B06BE
:104110009FEF1D140CF491E0899F802D1124809352
:104120007502992059F00E946B0691E019140CF069
:104130009FEF899F802D11248093760280917502D4
:10414000882399F010917602112379F00E948B0652
:10415000882309F43BC280937502812F0E948B064D
:10416000882309F436C2809376028C2D882909F4BD
:1041700047C000916F02109170020E9456059C0189
:10418000201B310B90916D02992309F4E7C2213570
:104190003105B0F19F3F19F09F5F90936D02882029
:1041A00059F00E9449069FEF18140CF491E0899F82
:1041B000802D112480937702CC2059F00E9449066B
:1041C00091E01C140CF09FEF899F802D11248093A7
:1041D000780280917702882399F010917802112358
:1041E00079F00E948B06882309F4F6C18093770248
:1041F000812F0E948B06882309F4F1C180937802F5
:1042000080917402681217C080917502882311F0A2
:10421000D81211C020917602222311F092120BC005
:1042200090917802992311F0C91205C0309177025C
:10423000332309F48EC20E94210686E0FE013196E6
:10424000A3E7B2E001900D928A95E1F7E091BB02FD
:10425000F091BC02309719F08BE992E009959FB775
:10426000F8940091840380918303081708F4BAC17D
:10427000081B9FBFD12CC12C10E084E0682EC01613
:10428000D10608F4B3C10E94120690914102891729
:1042900069F0809341028FB7F89440918202509167
:1042A000830260918402709185028FBF8091910298
:1042B0008430E1F4809111018F708093E900909136
:1042C000E80090FF13C090919102943079F48093AC
:1042D000E9009091F3008091F200892B39F08091F0
:1042E000E8008E778093E8000E94CC0380919102D1
:1042F000843009F07ECE83E08093E9008091E8006D
:1043000082FF77CE8091E80085FF08C050E040E052
:1043100060E270E0CE0101960E94FD038091E8000A
:104320008B778093E80065CE80919102843009F408
:1043300036C0109249028091390281110DC0F0926D
:10434000390280918C03982F9170909338028E7F60
:1043500080938C030E94A70610928102E8E1F0E0AE
:104360000FB6F894A895E09360000FBE109360001C
:1043700083B7817F846083BF83B7816083BF789474
:10438000889583B78E7F83BF0FB6F894A8958091E8
:104390006000886180936000109260000FBE0E94F0
:1043A000DE1780913A0280933C0290913B029093F9
:1043B0003D02892BC9F0809190028823A9F0E9BCC5
:1043C00009BD09B400FEFDCF8091D8008F7D809398
:1043D000D8008091E00082608093E0008091E0004E
:1043E00081FDFCCF0E94581080919102853009F424
:1043F0009BCF0E9458100E941206109239028091A1
:104400003802882351F080918C03816080938C0363
:1044100060E0869586950E94BA0F0E94A30FF0CDAA
:104420002AE332E038A72FA3BFE38B2EB2E09B2E06
:104430000CE312E0312CEFA1F8A56190F8A7EFA3EF
:10444000F40141904F01461409F441C04624D12C97
:10445000C12C55245394852D842171F1252C2620BF
:1044600021E030E00C2C02C0220F331F0A94E2F747
:104470003AA729A7F801808190E082239323892B12
:1044800099F4C9A23AA20E9456059CA38BA37DA2CF
:1044900091E0211001C090E09EA349A15AA16BA117
:1044A0007CA18DA10E94ED14211006C089A58095E4
:1044B000F801908189238083550CFFEFCF1ADF0A22
:1044C00024E0C216D10439F6F401319760820F5FFF
:1044D0001F4F31E033120CC08FB7F8944091820225
:1044E0005091830260918402709185028FBF98CDB4
:1044F00033243394A0CF863059F4F0E0E25FFD4FCF
:10450000E4910E2F10E0F3E0CF2EF9E0DF2EA2CDE4
:10451000893061F4E695F0E0E55FFD4FE4910E2F00
:1045200010E0EFECCE2EE8E0DE2E94CD8F3061F47B
:10453000E695F0E0E85FFD4FE4910E2F10E077E79D
:10454000C72E78E0D72E86CD853159F4F0E0EB5FA9
:10455000FD4FE4910E2F10E06FE2C62E68E0D62EDC
:1045600079CD08E210E036EBC32E37E0D32E883148
:1045700009F470CD833249F4E3E0F2E0059114913F
:1045800059EDC52E56E0D52E65CD04EF11E02AE891
:10459000C22E27E0D22E843209F45CCD00ED17E064
:1045A00096EAC92E96E0D92E853209F053CD8E2F8A
:1045B00063E036D1E92FF0E0E050FE4FE4910E2F9A
:1045C00010E042E1C42E4FE0D42E44CDF0927502AB
:1045D000C4CDF0927602C9CDF092770209CEF09266
:1045E00078020ECE20918503020F42CE8091830384
:1045F00090E06091850370E033D120918603309183
:104600008703280F391FF90190808090C002F7EFCF
:10461000F915E0F4F092C00220E040E0692D81E05D
:1046200090E00E94CA028092C0022FB7F894809155
:10463000830390E001966091850370E011D180932F
:1046400083032FBFFFEFCF1ADF0A19CE97FE52C0A8
:1046500024E0821631F09092BD02B092C202A09284
:10466000C102892D0E942709813069F08823D1F089
:104670008230A9F0833099F01092C0021092C202E9
:104680001092C102D2CF8093C00220E040E0692D99
:1046900081E090E00E94CA021092C002C6CF8093CF
:1046A000C002C3CF30EF9316E1F087EF9812E4CF4A
:1046B0002091C1023091C202C90163E070E0BCD018
:1046C000FC01E556FD4F92A2C90101969093C202EA
:1046D0008093C1022091BF024091BE026091BD0251
:1046E000D9CF6092C0029092BD02B092C202A09255
:1046F000C1029BCF882009F498CF2091C10230914C
:10470000C202C90163E070E097D0AC01FC01E5563C
:10471000FD4F92A2C90101969093C2028093C102FB
:104720004130510589F04230510509F07ECF20918A
:10473000BF024091BE026091BD020E94CA028091F8
:10474000C002843091F671CFE2E020E08E126DCF8E
:10475000F0CF822B892B09F470CD6DCD2B30310534
:1047600008F01ACD4DCD2B30310508F0CACCFDCC68
:10477000873901F178F48633F9F030F48433F1F0BD
:104780008533F1F08FE108958439E1F08639D1F76E
:1047900081E20895843FC1F030F4803FB9F0813F59
:1047A00089F781E00895863F99F0A0F0873F51F79F
:1047B00087E0089582E2089585E2089583E20895EE
:1047C00084E2089580E2089584E0089580E00895E9
:1047D00086E0089585E0089596E890937A00982FF2
:1047E0009072906890937B008F7190912E01892B2D
:1047F00080937C0080917A00806480937A0080911D
:104800007A0086FDFCCF809178002091790090910C
:104810007A009F7790937A00922F0895A9DFDCCFDA
:10482000991B79E004C0991F961708F0961B881F02
:104830007A95C9F780950895AA1BBB1B51E107C063
:10484000AA1FBB1FA617B70710F0A61BB70B881F20
:10485000991F5A95A9F780959095BC01CD010895AF
:1048600097FB072E16F4009406D077FD08D0E4DFFE
:1048700007FC05D03EF4909581959F4F0895709563
:1048800061957F4F0895EE0FFF1F0590F491E02D85
:10489000099479D1332312F48A1B9B0B01C073D185
:1048A000B7FF0895821B930B08952F923F924F926A
:1048B0005F926F927F928F929F92AF92BF92CF92B0
:1048C000DF92EF92FF920F931F93CF93DF93CDB7B9
:1048D000DEB7CA1BDB0B0FB6F894DEBF0FBECDBF31
:1048E00009942A88398848885F846E847D848C8402
:1048F0009B84AA84B984C884DF80EE80FD800C810B
:104900001B81AA81B981CE0FD11D0FB6F894DEBFED
:104910000FBECDBFED010895002E083090F0982F06
:10492000872F762F652F542F432F322F22270850A1
:10493000F4CF220F331F441F551F661F771F881F98
:10494000991F0A95B2F7002D089597FD1094002E37
:10495000083098F00850232F342F452F562F672FFB
:10496000782F892F912DF4CF15949795879577956A
:10497000679557954795379527950A95AAF7112476
:10498000002D08958F929F92AF92BF92CF92DF92A7
:10499000EF92FF92CF93DF93EC01688179818A8156
:1049A0009B81611571058105910521F464E279ED22
:1049B0008BE597E02DE133EF41E050E096D04901DF
:1049C0005A019B01AC01A7EAB1E4ABD06B017C01B9
:1049D000ACEEB4EFA5019401B0D0DC01CB018C0D9D
:1049E0009D1DAE1DBF1DB7FF03C00197A109B048B3
:1049F00088839983AA83BB839F77DF91CF91FF90B0
:104A0000EF90DF90CF90BF90AF909F908F900895E0
:104A1000B9CF80E091E0B6CFB0E0A0E08093000194
:104A200090930101A0930201B0930301089581E0E6
:104A300090E0F894D1C3FC014150504030F0019017
:104A40000616D1F73197CF01089588279927089541
:104A5000FB01DC0104C08D910190801921F44150CB
:104A60005040C8F7881B990B0895F999FECF92BD65
:104A700081BDF89A992780B50895A6E1B0E044E099
:104A800050E025C0A8E1B0E042E050E020C0262F71
:104A9000F999FECF92BD81BDF89A019700B4021634
:104AA00039F01FBA20BD0FB6F894FA9AF99A0FBEE2
:104AB00008950396272FECDFEADF252FE9DF242F67
:104AC000E7CF0196272FE4DFE2CFDC01CB01FC0129
:104AD000F999FECF06C0F2BDE1BDF89A319600B457
:104AE0000D9241505040B8F70895052E97FB16F4EB
:104AF00000940FD057FD05D024D007FC02D046F417
:104B000008C050954095309521953F4F4F4F5F4FCE
:104B1000089590958095709561957F4F8F4F9F4F29
:104B2000089531D0A59F900DB49F900DA49F800D46
:104B3000911D11240895B7FFF4CFF3DF821B930B6F
:104B40000895A1E21A2EAA1BBB1BFD010DC0AA1FCE
:104B5000BB1FEE1FFF1FA217B307E407F50720F0E6
:104B6000A21BB30BE40BF50B661F771F881F991F61
:104B70001A9469F760957095809590959B01AC01AA
:104B8000BD01CF010895A29FB001B39FC001A39FB3
:104B9000700D811D1124911DB29F700D811D112476
:104BA000911D08955058BB27AA270ED0C6C1B7D172
:104BB00030F0BCD120F031F49F3F11F41EF487C1D6
:104BC0000EF4E095E7FB7DC1E92FC8D180F3BA1759
:104BD000620773078407950718F071F49EF5E0C12A
:104BE0000EF4E0950B2EBA2FA02D0B01B901900108
:104BF0000C01CA01A0011124FF27591B99F0593F4C
:104C000050F4503E68F11A16F040A22F232F342F93
:104C10004427585FF3CF469537952795A795F040E1
:104C20005395C9F77EF41F16BA0B620B730B840BF6
:104C3000BAF09150A1F0FF0FBB1F661F771F881FAE
:104C4000C2F70EC0BA0F621F731F841F48F4879506
:104C500077956795B795F7959E3F08F0B3CF9395F5
:104C6000880F08F09927EE0F97958795089505D13D
:104C700008F481E008950CD060C158D140F04FD1C4
:104C800030F021F45F3F19F01CC151118AC11FC1DE
:104C900065D198F39923C9F35523B1F3951B550BAF
:104CA000BB27AA2762177307840738F09F5F5F4FFF
:104CB000220F331F441FAA1FA9F333D00E2E3AF040
:104CC000E0E830D091505040E695001CCAF729D05A
:104CD000FE2F27D0660F771F881FBB1F26173707A9
:104CE0004807AB07B0E809F0BB0B802DBF01FF27D9
:104CF00093585F4F2AF09E3F510568F0E2C051C1C2
:104D00005F3FECF3983EDCF3869577956795B79512
:104D1000F7959F5FC9F7880F911D9695879597F92D
:104D20000895E1E0660F771F881FBB1F62177307A6
:104D30008407BA0720F0621B730B840BBA0BEE1FBB
:104D400088F7E095089519F40EF0BBC029C1BFC0E3
:104D50000DD1C8F39638C0F707F80F92E8942BE30B
:104D60003AEA48EB5FE7D5D10F920F920F924DB719
:104D70005EB70F928DD1ECEAF0E0ACD04F915F912D
:104D8000EF91FF91E595EE1FFF1F49F0FE57E06898
:104D90004427EE0F441FFA95E1F74195550B14D1C6
:104DA0000F9007FE08C10895E1D088F09F5790F05A
:104DB000B92F9927B751A0F0D1F0660F771F881F40
:104DC000991F1AF0BA95C9F712C0B13081F0E8D036
:104DD000B1E00895E5C0672F782F8827B85F39F0D4
:104DE000B93FCCF3869577956795B395D9F73EF49F
:104DF00090958095709561957F4F8F4F9F4F089547
:104E0000E89409C097FB3EF4909580957095619564
:104E10007F4F8F4F9F4F9923A9F0F92F96E9BB271A
:104E20009395F695879577956795B795F111F8CF96
:104E3000FAF4BB0F11F460FF1BC06F5F7F4F8F4F01
:104E40009F4F16C0882311F096E911C0772321F0F7
:104E50009EE8872F762F05C0662371F096E8862F8F
:104E600070E060E02AF09A95660F771F881FDAF7E6
:104E7000880F9695879597F90895990F0008550F13
:104E8000AA0BE0E8FEEF16161706E807F907C0F0D0
:104E900012161306E407F50798F0621B730B840BD8
:104EA000950B39F40A2661F0232B242B252B21F4B2
:104EB00008950A2609F4A140A6958FEF811D811D52
:104EC000089597F99F6780E870E060E008959FEF8C
:104ED00080EC0895DF93CF931F930F93FF92EF928F
:104EE000DF927B018C01689405C0DA2EEF010FD1AF
:104EF000FE01E894A5912591359145915591AEF328
:104F0000EF0162DEFE019701A801DA9479F7DF90E4
:104F1000EF90FF900F911F91CF91DF9108950024A2
:104F20000A941616170618060906089500240A940E
:104F300012161306140605060895092E0394000C94
:104F400011F4882352F0BB0F40F4BF2B11F460FF23
:104F500004C06F5F7F4F8F4F9F4F089557FD90584C
:104F6000440F551F59F05F3F71F04795880F97FB2D
:104F7000991F61F09F3F79F08795089512161306E7
:104F80001406551FF2CF4695F1DF08C01616170616
:104F90001806991FF1CF869571056105089408954B
:104FA000E894BB2766277727CB0197F9089565DF3B
:104FB00008F48FEF08959B01AC0160E070E080E899
:104FC0009FE359CE7ECFFAC0D1DFE8F39923D9F31E
:104FD000940F511DBBF39150504094F059F0882329
:104FE00032F0660F771F881F91505040C1F79E3FE7
:104FF000510544F7880F911D9695879597F9089567
:105000005F3FACF0983E9CF0BB27869577956795FF
:10501000B79508F4B1609395C1F7BB0F58F711F439
:1050200060FFE8CF6F5F7F4F8F4F9F4FE3CFB9CFC8
:105030009DDF58F19E5758F19851A0F0E9F0983053
:1050400020F5092E9927660F771F881F991F0A944C
:10505000D1F712C0062E672F782F8827985F11F49A
:10506000000C07C0993FB4F38695779567959395A3
:10507000D9F7611D711D811D3EF490958095709545
:1050800061957F4F8F4F9F4F089568948ACF88CF47
:10509000FA01DC01AA0FBB1F9B01AC01BF5728F42A
:1050A00022273327442750781FC0B75188F4AB2FED
:1050B0000024469537952795011CA395D2F300202F
:1050C00069F0220F331F441FB395DAF30DD06ACD78
:1050D00061307105A0E88A07B94630F49B01AC0144
:1050E0006627772788279078309621F020833183B0
:1050F0004283538308950BD020CF11DF28F016DFB1
:1051000018F0952309F0DDCEE2CE11244ACF26DF38
:10511000A0F3959FD1F3950F50E0551F629FF001CA
:10512000729FBB27F00DB11D639FAA27F00DB11D23
:10513000AA1F649F6627B00DA11D661F829F2227AC
:10514000B00DA11D621F739FB00DA11D621F839F33
:10515000A00D611D221F749F3327A00D611D231F09
:10516000849F600D211D822F762F6A2F11249F5757
:1051700050408AF0E1F088234AF0EE0FFF1FBB1F7A
:10518000661F771F881F91505040A9F79E3F510519
:1051900070F097CE06CF5F3FECF3983EDCF3869538
:1051A00077956795B795F795E7959F5FC1F7FE2BC4
:1051B000880F911D9695879597F908959F3F31F037
:1051C000915020F4879577956795B795880F911D35
:1051D0009695879597F90895F894FFCF6B119311E1
:1051E000E6119311E611C611F811E611F51202133A
:1051F00048154C153D154415501554155815B01546
:105200002216B81583158715BC158B15C015CC153E
:1052100097151B169B15D0159F15D415FB15A315B7
:10522000D8150216A815DD15E5158F15C4159315AB
:10523000C815AC15E115F1150A1619167D15B4152A
:10524000291634164C165016541659165E16631647
:0852500068166D167216771640
:105258000100000062056B0E660E610E5C0E7E0E8C
:1052680004854000000106400000010001191A1BD6
:105278001C1D1E1F20212201020100000100400206
:1052880010111213818283E200E900EA00B500B62A
:1052980000B700CD008301CC008A0192019401215E
:1052A80002230224022502260227022A02B300B49E
:1052B800006F0070009F01CB019F02A002F0F13047
:1052C8003132330203020000010001010101010033
:1052D800010100010202020206060609090909097C
:1052E800090F0F0F0F0F0F1515151819191919197F
:1052F800191919191923242525252525254422B6E8
:0C530800AC018A01D4002C0445046504AB
:00000001FF
